:020000040804EE
:1000000000000220910804080D08040815080408DF
:100010001D080408250804082D0804080000000035
:100020000000000000000000000000003508040887
:100030004308040800000000510804085F08040891
:10004000E1080408E1080408E1080408E1080408DC
:10005000E1080408E1080408E1080408E1080408CC
:10006000E1080408E1080408E1080408E1080408BC
:10007000E1080408E1080408E1080408E1080408AC
:10008000E1080408E1080408E1080408E10804089C
:10009000E1080408E1080408E1080408E10804088C
:1000A000E1080408E1080408E1080408E10804087C
:1000B000E1080408E1080408E1080408E10804086C
:1000C000E1080408E1080408E1080408E10804085C
:1000D000E1080408E1080408E1080408E10804084C
:1000E000E1080408E1080408E1080408E10804083C
:1000F000E1080408E1080408E1080408E10804082C
:10010000E1080408E1080408E1080408E10804081B
:10011000E1080408E1080408E1080408E10804080B
:10012000E1080408E1080408E1080408E1080408FB
:10013000E10804080000000000000000E1080408D5
:10014000E1080408E1080408E1080408E1080408DB
:10015000E1080408E1080408E1080408E1080408CB
:10016000E1080408E1080408E1080408E1080408BB
:10017000E1080408E1080408E108040800000000A0
:1001800000000000E108040800000000000000007A
:10019000E10804080000000000000000E108040875
:1001A000000000000000000000000000E10804085A
:1001B000E1080408E1080408E1080408E10804086B
:0401C000E108040846
:1001C40010B5054C237833B9044B13B10448AFF38D
:1001D40000800123237010BD0C00002000000000EB
:1001E400A022040808B5034B1BB103490348AFF32D
:1001F400008008BD0000000010000020A0220408B8
:1002040053B94AB9002908BF00281CBF4FF0FF3179
:100214004FF0FF3000F088B9ADF1080C6DE904CE61
:1002240000F006F8DDF804E0DDE9022304B07047CD
:100234002DE9F047089D8E4604468846002B4AD196
:100244008A42174662D9B2FA82F64EB1C6F1200349
:1002540001FA06F820FA03F3B74043EA0808B44069
:100264004FEA174E1FFA87FCB8FBFEF1230C0EFB76
:10027400118843EA084301FB0CF29A4209D9FB189E
:1002840001F1FF3080F0EA809A4240F2E7800239BF
:100294003B449A1AA3B2B2FBFEF00EFB102243EACF
:1002A400024300FB0CFC9C4509D9FB1800F1FF320A
:1002B40080F0D6809C4540F2D3803B44023840EA2B
:1002C4000140A3EB0C0300211DB1F3400022C5E95A
:1002D4000032BDE8F0878B4205D90DB1C5E90001B4
:1002E40000210846F5E7B3FA83F1002946D17345A6
:1002F40002D3824200F20581841A6EEB03020120CC
:100304009046002DE5D0C5E90048E2E7002A00F058
:100314009080B2FA82F6002E40F0A4808A1A030C70
:100324004FEA174E80B2BCB20121B2FBFEFC0EFBB9
:100334001C2243EA024304FB0CF29A4207D9FB183D
:100344000CF1FF3802D29A4200F2E080C4469B1AB4
:10035400B3FBFEF20EFB123340EA034302FB04F448
:100364009C4207D9FB1802F1FF3002D29C4200F2F2
:10037400CA8002461B1B42EA0C40A5E7C1F12006D5
:100384008B4022FA06F71F430EFA01F420FA06F313
:100394002EFA06FE4FEA1749234300FA01F81FFA22
:1003A40087FCBEFBF9F01C0C09FB10EE44EA0E447A
:1003B40000FB0CFEA64502FA01F209D93C1900F132
:1003C400FF3A80F09C80A64540F2998002383C4474
:1003D400A4EB0E041FFA83FEB4FBF9F309FB1344E8
:1003E4004EEA044403FB0CFCA44508D93C1903F170
:1003F400FF3E80F08280A4457FD9023B3C4443EA1F
:100404000040A4EB0C04A0FB02EC64457346E146F7
:1004140062D35FD05DB1B8EB030264EB090404FA64
:1004240006F622FA01F31E43CC40C5E9006400211C
:100434004FE7B1FBF2FC010C41EA0E4180B240EA05
:1004440001423B4638463C46B846BE462026B1FBF0
:10045400F7F1A2EB080241EA0C4166E7014618E70E
:1004640010462CE7C6F120022EFA02F3B740B14041
:1004740020FA02F24FEA174E0A43B3FBFEF8BCB26D
:100484000EFB1833110C41EA034108FB04F9B04098
:1004940089454FEA104380B23ED9791808F1FF3CF0
:1004A40001D289451FD8A1EB0901B1FBFEF909FB73
:1004B40004F80EFB191192B242EA0142424529D2D4
:1004C400BA1809F1FF31C4D24245C2D2A9F10201DE
:1004D4003A44BEE7F0459DD2BEEB02036CEB070C39
:1004E4000138E14696E7A7EB09094944A8F1020C53
:1004F400B1FBFEF909FB04F8DBE773467FE75046DE
:1005040066E70846FDE63B44023A33E7ACF1020CE9
:100514003B441CE749469CE7A1EB0901C446B1FBF7
:10052400FEF909FB04F8C4E7704700BF80B500AFCB
:100534000E4B0F4A9A6000F0D3F962B600BF00F088
:100544001FF800F0A7F800F07BF86423182209498B
:10055400094801F0BBFA4FF48041084800F0E9FC77
:100564004FF4FA7000F02EFA00BFF4E700ED00E05B
:1005740000400008B82204082800002000040240BB
:1005840080B594B000AF07F11C0334220021184653
:1005940001F058FE07F1080300221A605A609A60BD
:1005A400DA601A6100237B60234B1B6C224A43F000
:1005B40080531364204B1B6C03F080537B607B6877
:1005C40000233B601D4B1B6823F440431B4A43F448
:1005D40080431360194B1B6803F440433B603B6842
:1005E4000223FB610123BB621023FB6200237B63B4
:1005F40007F11C03184600F07BFF0346002B01D0D3
:1006040000F08CF80F23BB600023FB6000233B61E8
:1006140000237B610023BB6107F108030021184616
:1006240000F0A2FC0346002B01D000F077F800BFD5
:100634005037BD4680BD00BF003802400070004006
:1006440080B500AF114B124A1A60104B4FF4E132DF
:100654005A600E4B00229A600C4B0022DA600B4B5E
:1006640000221A61094B0C225A61084B00229A613C
:10067400064B0022DA61054801F0D8F90346002B45
:1006840001D000F04BF800BF80BD00BF280000205F
:100694000048004080B588B000AF07F10C03002289
:1006A4001A605A609A60DA601A610023BB60194BC1
:1006B4001B6B184A43F002031363164B1B6B03F0C6
:1006C4000203BB60BB6800237B60124B1B6B114AA7
:1006D40043F0080313630F4B1B6B03F008037B60A9
:1006E4007B68002244F201010B4800F009FC44F24B
:1006F4000103FB6001233B6100237B610023BB6199
:1007040007F10C031946044800F066FA00BF2037CD
:10071400BD4680BD003802400004024080B400AFF2
:1007240072B600BF00BFFDE780B483B000AF002302
:100734007B60104B5B6C0F4A43F4804353640D4B56
:100744005B6C03F480437B607B6800233B60094B54
:100754001B6C084A43F080531364064B1B6C03F074
:1007640080533B603B6800BF0C37BD465DF8047B9B
:10077400704700BF0038024080B58AB000AF78608F
:1007840007F1140300221A605A609A60DA601A6151
:100794007B681B68194A93422CD100233B61184B98
:1007A4001B6C174A43F480231364154B1B6C03F42E
:1007B40080233B613B690023FB60114B1B6B104A98
:1007C40043F0080313630E4B1B6B03F00803FB6039
:1007D400FB684FF440737B610223BB610023FB6120
:1007E40003233B6207237B6207F114031946054880
:1007F40000F0F2F900BF2837BD4680BD0048004034
:1008040000380240000C024080B400AF00BFFDE796
:1008140080B400AF00BFFDE780B400AF00BFFDE7C8
:1008240080B400AF00BFFDE780B400AF00BFFDE7B8
:1008340080B400AF00BFBD465DF8047B704780B450
:1008440000AF00BFBD465DF8047B704780B400AFC5
:1008540000BFBD465DF8047B704780B500AF00F073
:1008640091F800BF80BD000080B400AF064BD3F800
:100874008830054A43F47003C2F8883000BFBD468F
:100884005DF8047B704700BF00ED00E0DFF834D072
:10089400FFF7EAFF0C480D490D4A002302E0D45843
:1008A400C4500433C4188C42F9D30A4A0A4C0023B6
:1008B40001E013600432A242FBD301F0CBFCFFF74A
:1008C40035FE704700000220000000200C000020CC
:1008D400FC2204080C00002074000020FEE7000045
:1008E40080B500AF0E4B1B680D4A43F400731360D0
:1008F4000B4B1B680A4A43F480631360084B1B6864
:10090400074A43F480731360032000F031F90F2089
:1009140000F008F8FFF708FF0023184680BD00BF69
:10092400003C024080B582B000AF7860124B1A6878
:10093400124B1B7819464FF47A73B3FBF1F3B2FBF5
:10094400F3F3184600F03BF90346002B01D00123D2
:100954000EE07B680F2B0AD8002279684FF0FF3035
:1009640000F011F9064A7B681360002300E00123BC
:1009740018460837BD4680BD00000020080000204E
:100984000400002080B400AF064B1B781A46064BC7
:100994001B681344044A136000BFBD465DF8047B22
:1009A400704700BF080000207000002080B400AF32
:1009B400034B1B681846BD465DF8047B704700BFB7
:1009C4007000002080B584B000AF7860FFF7EEFFC0
:1009D400B8607B68FB60FB68B3F1FF3F05D00A4B4E
:1009E4001B781A46FB681344FB6000BFFFF7DEFF69
:1009F4000246BB68D31AFA689A42F7D800BF00BF10
:100A04001037BD4680BD00BF0800002080B485B00B
:100A140000AF78607B6803F00703FB600C4BDB6876
:100A2400BB60BA684FF6FF031340BB60FB681A0251
:100A3400BB68134343F0BF6343F40033BB60044A11
:100A4400BB68D36000BF1437BD465DF8047B7047B4
:100A540000ED00E080B400AF044BDB681B0A03F038
:100A640007031846BD465DF8047B704700ED00E0BF
:100A740080B483B000AF03463960FB7197F9073047
:100A8400002B0ADB3B68DAB20C4997F907301201F4
:100A9400D2B20B4483F800230AE03B68DAB2084977
:100AA400FB7903F00F03043B1201D2B20B441A7614
:100AB40000BF0C37BD465DF8047B704700E100E0E1
:100AC40000ED00E080B489B000AFF860B9607A60EE
:100AD400FB6803F00703FB61FB69C3F10703042B05
:100AE40028BF0423BB61FB690433062B02D9FB69CD
:100AF400033B00E000237B614FF0FF32BB6902FA45
:100B040003F3DA43BB681A407B699A404FF0FF3124
:100B14007B6901FA03F3D9437B680B4013431846FE
:100B24002437BD465DF8047B7047000080B582B071
:100B340000AF78607B68013BB3F1807F01D3012370
:100B44000FE00A4A7B68013B53600F214FF0FF30EE
:100B5400FFF78EFF054B00229A60044B07221A60B0
:100B6400002318460837BD4680BD00BF10E000E0F2
:100B740080B582B000AF78607868FFF747FF00BFA8
:100B84000837BD4680BD80B586B000AF0346B96066
:100B94007A60FB7300237B61FFF75CFF78617A68FE
:100BA400B9687869FFF78EFF024697F90F3011464E
:100BB4001846FFF75DFF00BF1837BD4680BD80B5FE
:100BC40082B000AF78607868FFF7B0FF034618463C
:100BD4000837BD4680BD000080B489B000AF78609E
:100BE400396000237B6100233B610023BB61002348
:100BF400FB6165E10122FB6902FA03F37B613B6857
:100C04001B687A6913403B613A697B699A4240F0F8
:100C140054813B685B6803F00303012B05D03B68F8
:100C24005B6803F00303022B30D17B689B68BB61D4
:100C3400FB695B00032202FA03F3DB43BA69134046
:100C4400BB613B68DA68FB695B0002FA03F3BA69CB
:100C54001343BB617B68BA699A607B685B68BB615C
:100C64000122FB6902FA03F3DB43BA691340BB6157
:100C74003B685B681B0903F00102FB6902FA03F39A
:100C8400BA691343BB617B68BA695A603B685B68A5
:100C940003F00303032B17D07B68DB68BB61FB699C
:100CA4005B00032202FA03F3DB43BA691340BB611E
:100CB4003B689A68FB695B0002FA03F3BA69134361
:100CC400BB617B68BA69DA603B685B6803F0030365
:100CD400022B23D1FB69DA087B68083253F82230EF
:100CE400BB61FB6903F007039B000F2202FA03F3C5
:100CF400DB43BA691340BB613B681A69FB6903F0C3
:100D040007039B0002FA03F3BA691343BB61FB694F
:100D1400DA087B680832B96943F822107B681B68DB
:100D2400BB61FB695B00032202FA03F3DB43BA698C
:100D34001340BB613B685B6803F00302FB695B0023
:100D440002FA03F3BA691343BB617B68BA691A6098
:100D54003B685B6803F44033002B00F0AE80002353
:100D6400FB605D4B5B6C5C4A43F4804353645A4BB9
:100D74005B6C03F48043FB60FB68584AFB699B0887
:100D8400023352F82330BB61FB6903F003039B0079
:100D94000F2202FA03F3DB43BA691340BB617B6899
:100DA4004F4A934225D07B684E4A93421FD07B68BA
:100DB4004D4A934219D07B684C4A934213D07B68C6
:100DC4004B4A93420DD07B684A4A934207D07B68D2
:100DD400494A934201D106230CE007230AE0052384
:100DE40008E0042306E0032304E0022302E00123D5
:100DF40000E00023FA6902F0030292009340BA690A
:100E04001343BB613549FB699B080233BA6941F856
:100E140023203A4B9B68BB613B69DB43BA691340AF
:100E2400BB613B685B6803F48013002B03D0BA6991
:100E34003B691343BB61314ABB6993602F4BDB6849
:100E4400BB613B69DB43BA691340BB613B685B68C8
:100E540003F40013002B03D0BA693B691343BB614D
:100E6400264ABB69D360254B5B68BB613B69DB43A6
:100E7400BA691340BB613B685B6803F40033002B21
:100E840003D0BA693B691343BB611C4ABB69536015
:100E94001A4B1B68BB613B69DB43BA691340BB61F6
:100EA4003B685B6803F48033002B03D0BA693B6969
:100EB4001343BB61114ABB691360FB690133FB61D6
:100EC400FB690F2B7FF696AE00BF00BF2437BD46EB
:100ED4005DF8047B704700BF0038024000380140D1
:100EE400000002400004024000080240000C0240DE
:100EF400001002400014024000180240003C01406F
:100F040080B483B000AF78600B467B8013467B705F
:100F14007B78002B03D07A887B689A6103E07B8816
:100F24001A047B689A6100BF0C37BD465DF8047BE8
:100F3400704780B485B000AF78600B467B807B68D7
:100F44005B69FB607A88FB6813401A04FB68D94329
:100F54007B880B401A437B689A6100BF1437BD46F7
:100F64005DF8047B7047000080B584B000AF786002
:100F740039607B68002B01D10123CCE0684B1B68EE
:100F840003F00F033A689A420CD9654B3A68D2B21F
:100F94001A70634B1B6803F00F033A689A4201D03E
:100FA4000123B8E07B681B6803F00203002B20D008
:100FB4007B681B6803F00403002B05D0594B9B6826
:100FC400584A43F4E05393607B681B6803F00803BA
:100FD400002B05D0534B9B68524A43F46043936003
:100FE400504B9B6823F0F0027B689B684D49134388
:100FF4008B607B681B6803F00103002B44D07B6883
:101004005B68012B07D1474B1B6803F40033002BAB
:1010140019D101237FE07B685B68022B03D07B68D6
:101024005B68032B07D13F4B1B6803F00073002B55
:1010340009D101236FE03B4B1B6803F00203002B33
:1010440001D1012367E0374B9B6823F003027B68DF
:101054005B68344913438B60FFF7A8FCF8600AE02F
:10106400FFF7A4FC0246FB68D31A41F2883293428C
:1010740001D903234FE02B4B9B6803F00C027B68E0
:101084005B689B009A42EBD1254B1B6803F00F036E
:101094003A689A420CD2224B3A68D2B21A70204B68
:1010A4001B6803F00F033A689A4201D0012332E02F
:1010B4007B681B6803F00403002B08D0194B9B6862
:1010C40023F4E0527B68DB68164913438B607B682A
:1010D4001B6803F00803002B09D0124B9B6823F410
:1010E40060427B681B69DB000E4913438B6000F090
:1010F40055F802460B4B9B681B0903F00F030A4982
:10110400CB5C22FA03F3094A1360094B1B681846A7
:10111400FFF708FC002318461037BD4680BD00BF0A
:10112400003C024000380240D422040800000020A1
:101134000400002080B400AF034B1B681846BD4672
:101144005DF8047B704700BF0000002080B500AF4D
:10115400FFF7F0FF0246054B9B689B0A03F0070369
:101164000349CB5C22FA03F3184680BD00380240E1
:10117400E422040880B500AFFFF7DCFF0246054B0C
:101184009B685B0B03F007030349CB5C22FA03F370
:10119400184680BD00380240E42204082DE9B04F0F
:1011A400A6B000AF0023C7F88C300023C7F89430F2
:1011B4000023C7F888300023C7F884300023C7F819
:1011C4009030C84B9B6803F00C030C2B00F27E811B
:1011D40001A252F823F000BF11120408D11404082C
:1011E400D1140408D114040819120408D1140408F1
:1011F400D1140408D114040821120408D1140408D9
:10120400D1140408D11404088B130408B64BC7F88E
:1012140090305FE1B54BC7F890305BE1B14B5B6850
:1012240003F03F03C7F88C30AE4B5B6803F48003D4
:10123400002B31D0AB4B5B689B090022BB66FA667E
:10124400BB6EC3F308033B6600237B66A74BD7E959
:1012540018452A4603FB02F20023214601FB03F34F
:101264001344A24A2146A1FB0212FA670A46BA674E
:10127400FA6F1344FB67D7F88C300022BB65FA651C
:10128400D7E91623D7E91E01FEF7BAFF02460B463B
:101294001346C7F8943064E0924B5B689B090022C4
:1012A4003B657A653B6DC3F30803BB640023FB64B1
:1012B400D7E9124522462B464FF000004FF00001BB
:1012C400590141EAD261500102460B462146511AA6
:1012D4003961294663EB01037B614FF000024FF053
:1012E4000003D7E904AB59468B01514643EA9163A5
:1012F40051468A015146B2EB0108594663EB010994
:101304004FF000024FF000034FEAC90343EA587359
:101314004FEAC80290469946234618EB0303BB6084
:101324002B4649EB0303FB604FF000024FF0000330
:10133400D7E9024529468B02214643EA91532146C7
:101344008A0210461946D7F88C3000223B647A642E
:10135400D7E91023FEF754FF02460B461346C7F89D
:101364009430604B5B681B0C03F0030301335B0098
:10137400C7F88830D7F89420D7F88830B2FBF3F355
:10138400C7F89030A6E0574B5B6803F03F03C7F8FB
:101394008C30544B5B6803F48003002B2AD0514BF0
:1013A4005B689B090022BB63FA63BB6BC3F3080051
:1013B40000214E4B03FB01F2002300FB03F3134413
:1013C4004A4AA0FB02127A670A463A677A6F1344C4
:1013D4007B67D7F88C3000223B637A63D7E90C2310
:1013E400D7E91C01FEF70CFF02460B461346C7F86B
:1013F40094305BE03B4B5B689B090022BB62FA6262
:10140400BB6AC3F308033B6200237B62D7E9088904
:1014140042464B464FF000004FF00001590141EAAB
:10142400D261500102460B464146B2EB010A4946DD
:1014340063EB010B4FF000024FF000034FEA8B13F4
:1014440043EA9A634FEA8A12B2EB0A0463EB0B0590
:101454004FF000024FF00003EB0043EA5473E20044
:1014640014461D464346E3183B604B4645EB0303D5
:101474007B604FF000024FF00003D7E90045294696
:101484008B02214643EA915321468A0210461946AB
:10149400D7F88C300022BB61FA61D7E90623FEF746
:1014A400AFFE02460B461346C7F894300D4B5B68FB
:1014B4001B0F03F00703C7F88430D7F89420D7F83C
:1014C4008430B2FBF3F3C7F8903003E0064BC7F85F
:1014D400903000BFD7F8903018469837BD46BDE825
:1014E400B08F00BF003802400024F40040787D0132
:1014F40080B586B000AF78607B68002B01D10123F2
:101504008DE27B681B6803F00103002B00F08380ED
:10151400944B9B6803F00C03042B19D0914B9B68EC
:1015240003F00C03082B06D18E4B5B6803F4800395
:10153400B3F5800F0CD08B4B9B6803F00C030C2B82
:1015440012D1884B5B6803F48003B3F5800F0BD191
:10155400844B1B6803F40033002B5BD07B685B680F
:10156400002B57D101235AE27B685B68B3F5803FB7
:1015740006D17C4B1B687B4A43F4803313601DE027
:101584007B685B68B3F5A02F0CD1764B1B68754A5A
:1015940043F480231360734B1B68724A43F4803313
:1015A40013600BE06F4B1B686E4A23F480331360A7
:1015B4006C4B1B686B4A23F4802313607B685B6865
:1015C400002B13D0FFF7F2F9386108E0FFF7EEF9CA
:1015D40002463B69D31A642B01D903231FE2614BF2
:1015E4001B6803F40033002BF0D014E0FFF7DEF99E
:1015F400386108E0FFF7DAF902463B69D31A642B35
:1016040001D903230BE2574B1B6803F40033002B6F
:10161400F0D100E000BF7B681B6803F00203002BDD
:101624006FD0504B9B6803F00C03002B17D04D4B2D
:101634009B6803F00C03082B05D14A4B5B6803F449
:101644008003002B0BD0474B9B6803F00C030C2B3F
:101654001CD1444B5B6803F48003002B16D1414B2F
:101664001B6803F00203002B05D07B68DB68012BA9
:1016740001D00123D3E13B4B1B6823F0F8027B68C4
:101684001B69DB00374913430B603AE07B68DB6876
:10169400002B20D0344B01221A60FFF787F9386100
:1016A40008E0FFF783F902463B69D31A022B01D9FC
:1016B4000323B4E12B4B1B6803F00203002BF0D08F
:1016C400284B1B6823F0F8027B681B69DB00254963
:1016D40013430B6015E0244B00221A60FFF766F9F0
:1016E400386108E0FFF762F902463B69D31A022B1E
:1016F40001D9032393E11B4B1B6803F00203002B66
:10170400F0D17B681B6803F00803002B36D07B689C
:101714005B69002B16D0154B01221A60FFF746F9BE
:10172400386108E0FFF742F902463B69D31A022BFD
:1017340001D9032373E10B4B5B6F03F00203002B0E
:10174400F0D01BE0094B00221A60FFF72FF9386133
:101754000EE0FFF72BF902463B69D31A022B07D997
:1017640003235CE10038024000004742800E4742F8
:101774008A4B5B6F03F00203002BEAD17B681B6882
:1017840003F00403002B00F097800023FB75834BC8
:101794001B6C03F08053002B0FD10023BB607F4BE5
:1017A4001B6C7E4A43F0805313647C4B1B6C03F028
:1017B4008053BB60BB680123FB75794B1B6803F442
:1017C4008073002B18D1764B1B68754A43F48073E1
:1017D4001360FFF7EBF8386108E0FFF7E7F802461B
:1017E4003B69D31A022B01D9032318E16C4B1B6804
:1017F40003F48073002BF0D07B689B68012B06D127
:10180400664B1B6F654A43F0010313671CE07B685A
:101814009B68052B0CD1614B1B6F604A43F004039A
:1018240013675E4B1B6F5D4A43F0010313670BE0C4
:101834005A4B1B6F594A23F001031367574B1B6F15
:10184400564A23F0040313677B689B68002B15D06A
:10185400FFF7ACF838610AE0FFF7A8F802463B69E5
:10186400D31A41F28832934201D90323D7E04B4B78
:101874001B6F03F00203002BEED014E0FFF796F881
:1018840038610AE0FFF792F802463B69D31A41F245
:101894008832934201D90323C1E0404B1B6F03F00C
:1018A4000203002BEED1FB7D012B05D13B4B1B6CBE
:1018B4003A4A23F0805313647B689B69002B00F041
:1018C400AD80364B9B6803F00C03082B60D07B681B
:1018D4009B69022B45D1334B00221A60FFF766F84F
:1018E400386108E0FFF762F802463B69D31A022B1D
:1018F40001D9032393E0294B1B6803F00073002BE9
:10190400F0D17B68DA697B681B6A1A437B685B6A7F
:101914009B011A437B689B6A5B08013B1B041A43C7
:101924007B68DB6A1B061A437B681B6B1B071B491E
:1019340013434B601B4B01221A60FFF737F83861E1
:1019440008E0FFF733F802463B69D31A022B01D9AA
:10195400032364E0114B1B6803F00073002BF0D0E9
:101964005CE0104B00221A60FFF720F8386108E0B1
:10197400FFF71CF802463B69D31A022B01D9032353
:101984004DE0064B1B6803F00073002BF0D145E0DB
:101994007B689B69012B07D1012340E0003802409A
:1019A40000700040600047421F4B5B68FB607B682F
:1019B4009B69012B30D0FB6803F480027B68DB69F0
:1019C4009A4229D1FB6803F03F027B681B6A9A4262
:1019D40022D1FA6847F6C07313407A68526A9201BA
:1019E400934219D1FB6803F440327B689B6A5B081D
:1019F400013B1B049A420FD1FB6803F070627B68C1
:101A0400DB6A1B069A4207D1FB6803F0E0427B685D
:101A14001B6B1B079A4201D0012300E000231846E8
:101A24001837BD4680BD00BF0038024080B582B083
:101A340000AF78607B68002B01D1012342E07B6812
:101A440093F84130DBB2002B06D17B68002283F887
:101A540040207868FEF790FE7B68242283F84120BA
:101A64007B681B68DA687B681B6822F40052DA60C2
:101A7400786800F073F97B681B681A697B681B68D7
:101A840022F490421A617B681B685A697B681B6860
:101A940022F02A025A617B681B68DA687B681B683B
:101AA40042F40052DA607B6800225A647B68202288
:101AB40083F841207B68202283F842207B6800223F
:101AC4005A63002318460837BD4680BD80B58AB0E6
:101AD40002AFF860B9603B601346FB8000237B6172
:101AE400FB6893F84130DBB2202B75D1BB68002B27
:101AF40002D0FB88002B01D101236EE0FB68002299
:101B04005A64FB68212283F84120FEF74FFF786175
:101B1400FB68FA889A84FB68FA88DA84FB689B6815
:101B2400B3F5805F08D1FB681B69002B04D1002347
:101B3400FB61BB68BB6103E0BB68FB610023BB6165
:101B44002EE03B6800937B6900228021F86800F056
:101B540048F80346002B05D0FB68202283F8412077
:101B640003233AE0FB69002B0BD1BB691B881A469F
:101B7400FB681B68C2F308025A60BB690233BB618D
:101B840007E0FB691A78FB681B685A60FB6901333C
:101B9400FB61FB68DB8C9BB2013B9AB2FB68DA8485
:101BA400FB68DB8C9BB2002BCBD13B6800937B6939
:101BB40000224021F86800F014F80346002B05D0F9
:101BC400FB68202283F84120032306E0FB682022DF
:101BD40083F84120002300E0022318462037BD4645
:101BE40080BD80B586B000AFF860B9603B60134635
:101BF400FB713BE03B6AB3F1FF3F37D0FEF7D6FE03
:101C040002463B68D31A3A6A9A4202D33B6A002BD3
:101C140001D103233AE0FB681B68DB6803F004038B
:101C2400002B23D0BB68802B20D0BB68402B1DD059
:101C3400FB681B681B6803F00803082B16D10023FC
:101C44007B61FB681B681B687B61FB681B685B68C6
:101C54007B617B69F86800F01DF8FB6808225A6410
:101C6400FB68002283F8402001230FE0FB681B6817
:101C74001A68BB681340BA689A420CBF0123002358
:101C8400DBB21A46FB799A42B4D0002318461837BF
:101C9400BD4680BD80B495B000AF78607B681B689A
:101CA4000C337B637B6B53E8003F3B633B6B23F458
:101CB4009073FB647B681B680C33FA6C3A64FB63B7
:101CC400F96B3A6C41E80023BB63BB6B002BE5D195
:101CD4007B681B6814333B623B6A53E8003FFB613B
:101CE400FB6923F00103BB647B681B681433BA6C83
:101CF400FA62BB62B96AFA6A41E800237B627B6AD2
:101D0400002BE5D17B681B6B012B19D17B681B6809
:101D14000C33FB60FB6853E8003FBB60BB6823F0F7
:101D240010037B647B681B680C337A6CBA617B613B
:101D34007969BA6941E800233B613B69002BE5D12D
:101D44007B68202283F842207B6800221A6300BF4C
:101D54005437BD465DF8047B704700002DE9B04F51
:101D6400C0B000AFC7F8F400D7F8F4301B681B69A3
:101D740023F44050D7F8F430D968D7F8F4301A680F
:101D840040EA01031361D7F8F4309A68D7F8F430C5
:101D94001B691A43D7F8F4305B691A43D7F8F43057
:101DA400DB691343C7F8F830D7F8F4301B68DB68F5
:101DB40023F4164121F00C01D7F8F4301A68D7F84F
:101DC400F8300B43D360D7F8F4301B685B6923F415
:101DD4004070D7F8F4309969D7F8F4301A6840EABB
:101DE40001035361D7F8F4301A688F4B9A4205D037
:101DF400D7F8F4301A688D4B9A4204D1FFF7BAF938
:101E0400C7F8FC0003E0FFF7A1F9C7F8FC00D7F816
:101E1400F430DB69B3F5004F40F00C81D7F8FC30A7
:101E24000022C7F8E830C7F8EC20D7E93A45224643
:101E34002B469118B9655B41FB65D7E9162321460A
:101E440012EB0108294643EB01094FF000024FF061
:101E540000034FEAC90343EA58734FEAC8029046A5
:101E64009946234618EB0303C7F8E0302B4649EBA9
:101E74000303C7F8E430D7F8F4305B680022C7F8EE
:101E8400D830C7F8DC20D7E936120B46DB183B659F
:101E9400134642EB03037B65D7E91423D7E93801E2
:101EA400FEF7AEF902460B46614BA3FB02235B0926
:101EB4001C01D7F8FC300022C7F8D030C7F8D42072
:101EC400D7E9348942464B469118B9645B41FB64B7
:101ED400D7E91223414612EB010A494643EB010BB1
:101EE4004FF000024FF000034FEACB0343EA5A736A
:101EF4004FEACA0292469B4643461AEB0303C7F8CD
:101F0400C8304B464BEB0303C7F8CC30D7F8F4305A
:101F14005B680022C7F8C030C7F8C420D7E9301284
:101F24000B46DB183B64134642EB03037B64D7E99F
:101F34001023D7E93201FEF763F902460B46114636
:101F44003B4BA3FB01235B09642202FB03F3CB1A83
:101F5400DB0003F13202364BA3FB02235B095B0077
:101F640003F4F8731C44D7F8FC300022C7F8B830E7
:101F7400C7F8BC20D7E92E8942464B469118B9636D
:101F84005B41FB63D7E90E23414651183963494647
:101F94004B417B634FF000024FF00003D7E90CABD9
:101FA4005946CB00514643EA51735146CA00104684
:101FB4001946034642469B18C7F8B0304B460A46BA
:101FC40042EB0303C7F8B430D7F8F4305B6800225F
:101FD400C7F8A830C7F8AC20D7E92A120B46DB189B
:101FE400BB62134642EB0303FB62D7E90A23D7E93A
:101FF4002C01FEF705F902460B460D4BA3FB021319
:102004005B09642101FB03F3D31ADB003233084A72
:10201400A2FB03235B0903F00702D7F8F4301B6823
:1020240022449A6006E100BF001001400014014000
:102034001F85EB51D7F8FC300022C7F8A030C7F851
:10204400A420D7E9288942464B46911839625B415E
:102054007B62D7E9082341465418494643EB0105FE
:102064004FF000024FF00003EB0043EA5473E20028
:1020740014461D464346E318C7F898304B4645EBD3
:102084000303C7F89C30D7F8F4305B680022C7F824
:102094009030C7F894204FF000024FF00003D7E9C6
:1020A400244529468B00214643EA917321468A0040
:1020B400D7E92601FEF7A4F802460B46604BA3FBC2
:1020C40002235B091C01D7F8FC300022C7F88830D2
:1020D400C7F88C20D7E9228942464B469118B9614A
:1020E4005B41FB61D7E906234146511839614946F2
:1020F4004B417B614FF000024FF00003D7E904AB82
:102104005946CB00514643EA51735146CA00104622
:102114001946034642469B18C7F880304B460A4688
:1021240042EB0303C7F88430D7F8F4305B6800222D
:10213400BB67FA674FF000024FF00003D7E91E892E
:1021440049468B00414643EA917341468A00D7E9E8
:102154002001FEF755F802460B461146384BA3FB07
:1021640001235B09642202FB03F3CB1A1B01323304
:10217400334AA2FB03235B0903F0F0031C44D7F8A2
:10218400FC3000223B677A67D7E91C8942464B46FC
:102194009118B9605B41FB60D7E9022341465118AD
:1021A400396049464B417B604FF000024FF0000319
:1021B400D7E900AB5946CB00514643EA5173514627
:1021C400CA0010461946034642469B18BB664B4656
:1021D4000A4642EB0303FB66D7F8F4305B6800223F
:1021E4003B667A664FF000024FF00003D7E9188986
:1021F40049468B00414643EA917341468A00D7E938
:102204001A01FDF7FDFF02460B460D4BA3FB02131B
:102214005B09642101FB03F3D31A1B013233084A1F
:10222400A2FB03235B0903F00F02D7F8F4301B6809
:1022340022449A6000BF07F58077BD46BDE8B08FA1
:102244001F85EB5102440346934200D1704703F8C3
:10225400011BF9E770B50D4D0D4C641BA41000264D
:10226400A64209D10B4D0C4C00F018F8641BA410C5
:102274000026A64205D170BD55F8043B98470136A7
:10228400EEE755F8043B98470136F2E7F4220408D8
:10229400F4220408F4220408F8220408F8B500BF64
:1022A400F8BC08BC9E467047F8B500BFF8BC08BC33
:0422B4009E4670478B
:1022B800496E7369646520746865206170706C6923
:1022C800636174696F6E0D0A000000000000000071
:1022D80000000000010203040607080900000000CE
:0422E80001020304E8
:0822EC0048DFFF7F0100000044
:0422F400E9010408F0
:0422F800C501040810
:0C22FC000024F4001000000001000000AD
:020000040805ED
:08FFF800FFFFFFFFFFFFFFFF09
:040000050804089152
:00000001FF
