:020000040800F2
:1000000000000220650D0008FD0C0008FF0C000830
:10001000010D0008030D0008050D00080000000098
:10002000000000000000000000000000070D0008B4
:10003000090D0008000000000B0D00080D0D000860
:10004000B50D0008B50D0008B50D0008B50D000888
:10005000B50D0008B50D0008B50D0008B50D000878
:10006000B50D0008B50D0008B50D0008B50D000868
:10007000B50D0008B50D0008B50D0008B50D000858
:10008000B50D0008B50D0008B50D0008B50D000848
:10009000B50D0008B50D0008B50D0008B50D000838
:1000A000B50D0008B50D0008B50D0008B50D000828
:1000B000B50D0008B50D0008B50D0008B50D000818
:1000C000B50D0008B50D0008B50D0008B50D000808
:1000D000B50D0008B50D0008B50D0008B50D0008F8
:1000E000B50D0008B50D0008B50D0008B50D0008E8
:1000F000B50D0008B50D0008B50D0008B50D0008D8
:10010000B50D0008B50D0008B50D0008B50D0008C7
:10011000B50D0008B50D0008B50D0008B50D0008B7
:10012000B50D0008B50D0008B50D0008B50D0008A7
:10013000B50D00080000000000000000B50D00082B
:10014000B50D0008B50D0008B50D0008B50D000887
:10015000B50D0008B50D0008B50D0008B50D000877
:10016000B50D0008B50D0008B50D0008B50D000867
:10017000B50D0008B50D0008B50D00080000000021
:1001800000000000B50D00080000000000000000A5
:10019000B50D00080000000000000000B50D0008CB
:1001A000000000000000000000000000B50D000885
:1001B000B50D0008B50D0008B50D0008B50D000817
:0401C000B50D000871
:1001D00010B5054C237833B9044B13B10448AFF381
:1001E00000800123237010BD7C000020000000006F
:1001F000A426000808B5034B1BB103490348AFF31D
:10020000008008BD0000000080000020A426000837
:10021000034613F8012B002AFBD1181A0138704746
:1002200001F0FF01102A2BDB10F0070F08D010F8A7
:10023000013B013A8B422DD010F0070F42B3F6D1AB
:10024000F0B441EA012141EA014122F007047FF0C4
:1002500000070023F0E80256083C85EA010586EA1B
:10026000010685FA47F5A3FA87F586FA47F6A5FA57
:1002700087F68EB9EED1F0BC01F0FF0102F0070263
:1002800032B110F8013B013A83EA010313B1F8D10E
:100290000020704701387047002D06BF35460338EF
:1002A000073815F0010F07D1013015F4807F02BF28
:1002B000013015F4C03F0130F0BC0138704700BF79
:1002C00053B94AB9002908BF00281CBF4FF0FF31BD
:1002D0004FF0FF3000F088B9ADF1080C6DE904CEA5
:1002E00000F006F8DDF804E0DDE9022304B0704711
:1002F0002DE9F047089D8E4604468846002B4AD1DA
:100300008A42174662D9B2FA82F64EB1C6F120038C
:1003100001FA06F820FA03F3B74043EA0808B440AC
:100320004FEA174E1FFA87FCB8FBFEF1230C0EFBB9
:10033000118843EA084301FB0CF29A4209D9FB18E1
:1003400001F1FF3080F0EA809A4240F2E780023902
:100350003B449A1AA3B2B2FBFEF00EFB102243EA12
:10036000024300FB0CFC9C4509D9FB1800F1FF324D
:1003700080F0D6809C4540F2D3803B44023840EA6E
:100380000140A3EB0C0300211DB1F3400022C5E99D
:100390000032BDE8F0878B4205D90DB1C5E90001F7
:1003A00000210846F5E7B3FA83F1002946D17345E9
:1003B00002D3824200F20581841A6EEB030201200F
:1003C0009046002DE5D0C5E90048E2E7002A00F09C
:1003D0009080B2FA82F6002E40F0A4808A1A030CB4
:1003E0004FEA174E80B2BCB20121B2FBFEFC0EFBFD
:1003F0001C2243EA024304FB0CF29A4207D9FB1881
:100400000CF1FF3802D29A4200F2E080C4469B1AF7
:10041000B3FBFEF20EFB123340EA034302FB04F48B
:100420009C4207D9FB1802F1FF3002D29C4200F235
:10043000CA8002461B1B42EA0C40A5E7C1F1200618
:100440008B4022FA06F71F430EFA01F420FA06F356
:100450002EFA06FE4FEA1749234300FA01F81FFA65
:1004600087FCBEFBF9F01C0C09FB10EE44EA0E44BD
:1004700000FB0CFEA64502FA01F209D93C1900F175
:10048000FF3A80F09C80A64540F2998002383C44B7
:10049000A4EB0E041FFA83FEB4FBF9F309FB13442B
:1004A0004EEA044403FB0CFCA44508D93C1903F1B3
:1004B000FF3E80F08280A4457FD9023B3C4443EA62
:1004C0000040A4EB0C04A0FB02EC64457346E1463B
:1004D00062D35FD05DB1B8EB030264EB090404FAA8
:1004E00006F622FA01F31E43CC40C5E90064002160
:1004F0004FE7B1FBF2FC010C41EA0E4180B240EA49
:1005000001423B4638463C46B846BE462026B1FB33
:10051000F7F1A2EB080241EA0C4166E7014618E751
:1005200010462CE7C6F120022EFA02F3B740B14084
:1005300020FA02F24FEA174E0A43B3FBFEF8BCB2B0
:100540000EFB1833110C41EA034108FB04F9B040DB
:1005500089454FEA104380B23ED9791808F1FF3C33
:1005600001D289451FD8A1EB0901B1FBFEF909FBB6
:1005700004F80EFB191192B242EA0142424529D217
:10058000BA1809F1FF31C4D24245C2D2A9F1020121
:100590003A44BEE7F0459DD2BEEB02036CEB070C7C
:1005A0000138E14696E7A7EB09094944A8F1020C96
:1005B000B1FBFEF909FB04F8DBE773467FE7504621
:1005C00066E70846FDE63B44023A33E7ACF1020C2D
:1005D0003B441CE749469CE7A1EB0901C446B1FB3B
:1005E000FEF909FB04F8C4E7704700BF70B5084D79
:1005F000064604460FCD0FC40FCD0FC495E8030087
:10060000044B84E803003068C31A5842584170BD57
:1006100000000208EFBEADDE064A0023C0E9002359
:100620000122C0E90223C0E90433C0E90633C0E96E
:1006300008337047EFBEADDE70B586B0044600F0FB
:1006400007FD68B901230522CDE9032301900223A8
:10065000694601A8059300F0E1FD20B100F00AFD14
:10066000002006B070BD094D094E043C54F8042F1B
:1006700000232946022000F02FFD0028EED104358A
:10068000B542F3D100F0F6FC0120EAE700000208D1
:100690002800020830B5084D0A44914200D130BD0F
:1006A00011F8013B5840082340F300042C40013B63
:1006B00084EA5000F8D1F0E72083B8ED006800F13B
:1006C0006040B0F5003F8CBF00200120704713460A
:1006D00010B50A681C6801464FF0FF30FFF7DAFFDB
:1006E000C043031B5842584110BD000002684368D4
:1006F00072B682F30888014A9060184700ED00E066
:10070000F7B500230093CDF8033000F09FFB0F4EA8
:100710000F4F044640F6B73500F098FB031BAB4281
:1007200002D9002003B0F0BD64230622694630469A
:1007300001F0AFFA0028EFD106223946684601F0F1
:1007400029FB0028E8D10120ECE700BF9800002039
:10075000BC26000810B586B0044600F079FC88B9C4
:10076000002C4FF002010BBF0122062204230123BB
:100770000190059101A86946CDE9032300F04EFDE3
:1007800000F078FC06B010BD2DE9F0410746884620
:10079000164600F05DFC044678B90546B54202D322
:1007A00000F068FC0AE058F805200023E91902204F
:1007B00000F092FC28B100F05DFC01242046BDE869
:1007C000F0810435EAE700002DE9F047D2B00023BC
:1007D00042490093072264230646414801F00BFA80
:1007E0003F4842F210730422694601F052FA04466F
:1007F00048B13C4964230E22394801F0FCF900203D
:1008000052B0BDE8F087009F3749DFF8D480DFF8A9
:10081000F8903A4602A801F093FA02A8FFF7F8FC14
:10082000642382B202A92E4801F0E5F92F48301A5C
:1008300018BF0120FFF78EFF2D49294864230822A5
:1008400001F0D9F9BC4207D32A492548642306227E
:1008500001F0D1F90120D3E73D1BB5F5807F28BF1A
:100860004FF4807542F21073AAB212A9404601F00B
:1008700010FA18B1204964230F22BDE7042242F286
:1008800010730DEB0201404601F003FA18B11B4949
:1008900064230D22B0E72A4612A94FF0FF30FFF77C
:1008A000F9FEDDF804A0C043824503D01449642357
:1008B0000622A1E72A4612A93046FFF765FF18B1C4
:1008C000104964230C2297E76423052249464046D9
:1008D0002E442C4401F08FF9B4E700BFC326000872
:1008E00098000020CB260008DA2600080040000807
:1008F000F02600082B270008F92600080927000821
:10090000172700081E2700081827000810B59AB0FE
:100910006846FFF76BFE58B95849594864231D22B1
:1009200001F069F96846FFF777FE6846FFF784FE35
:10093000FFF7E6FE002830D0019A524B524C534943
:100940004F48002A08BF1C466423162201F053F9C1
:100950002046FFF739FFD0B1019BB3FA83F35B095F
:1009600068460193FFF768FE49494548642313220E
:1009700001F041F9BFF34F8F4649474BCA6802F473
:10098000E0621343CB60BFF34F8F00BFFDE74349E5
:100990003B4864230C2201F02EF9019B4049394C5D
:1009A000404A002B404B08BF1946374B08BF1C4636
:1009B00003F5DF3303F5FE73204608BF1A46FFF741
:1009C0007DFE40B32046FFF782FE20B36423374903
:1009D0002B48152201F00FF9226835490AA801F0C9
:1009E000AFF90AA8FFF714FC642382B20AA92448CD
:1009F00001F001F962682F490AA801F0A1F90AA8DB
:100A0000FFF706FC642382B20AA91D4801F0F3F83F
:100A10002046FFF76BFE019B21491A4C214A002B0F
:100A2000214B18BF1946184B18BF1C4603F5DF337E
:100A300003F5FE73204618BF1A46FFF73FFEA0B12C
:100A40002046FFF744FE80B11B490D486423232252
:100A500001F0D1F8019BB3FA83F35B096846019377
:100A6000FFF7EAFD2046FFF741FE144904486423DE
:100A70001A2201F0C0F81AB010BD00BF32270008DA
:100A800098000020000004080040000850270008DB
:100A90006727000800ED00E00400FA057B27000846
:100AA000F8FF0508FCFF0508F8FF01088827000883
:100AB0009E270008B5270008CE270008F227000867
:100AC00000B595B03022002108A801F05BF914228E
:100AD000002102A801F056F900221A4B0092196C6D
:100AE00041F0805119641B6C174903F08053009347
:100AF000009B01920B6823F4404343F480430B6056
:100B00000B680D9203F440430193019B022307936A
:100B100001201023CDE90A0307A800F0B1FD01462A
:100B200008B172B6FEE70F23CDE90230CDE904002B
:100B3000069002A800F0A2FC08B172B6FEE715B05C
:100B40005DF804FB003802400070004000B589B039
:100B500000F056F9FFF7B4FF1422002103A801F0BA
:100B600011F90025294B01951A6B2948294C42F0AF
:100B700002021A631A6B02F002020192019A0295B4
:100B80001A6B42F008021A631B6B03F0080302930E
:100B90002A4644F20101029B00F062FC01231C483A
:100BA00044F2010203A9CDE90323CDE9055500F084
:100BB00085FB194925614FF4E133C4E90013204650
:100BC0000C23C4E90255C4E90535E56100F0E4FFF2
:100BD00008B172B6FEE71148114B036000F0A8F9A6
:100BE00008B172B6FEE70F4964231522204601F0D2
:100BF00002F8FFF78BFE064C2046012100F035FC81
:100C00004FF4FA7000F028F9F6E700BF0038024010
:100C1000000402409800002000480040E00000204E
:100C2000003002400D28000882B00C4B00210091DA
:100C30005A6C42F480425A645A6C02F48042009228
:100C4000009A01911A6C42F080521A641B6C03F0F6
:100C500080530193019B02B0704700BF00380240EF
:100C60000268094B9A4282B00BD100230193074BD3
:100C70001A6B42F480521A631B6B03F48053019386
:100C8000019B02B0704700BF0030024000380240B4
:100C900010B5044688B01422002103A801F072F8B0
:100CA0002268144B9A4223D103F5F83300210191B5
:100CB0001A6C114842F480221A641A6C02F48022E1
:100CC0000192019A02911A6B42F008021A631B6B9F
:100CD00003F008030293029B4FF4407202230321A6
:100CE000CDE903230723CDE9061303A900F0E6FAB3
:100CF00008B010BD00480040000C0240FEE7FEE7CF
:100D0000FEE7FEE7FEE770477047704700F092B8D5
:100D10000B4A116810B5034609B90A4911601068F9
:100D200009490A4C0344091B8B4206D901F044F8D7
:100D30000C2303604FF0FF3010BD1360FCE700BFD1
:100D4000E80000203802002000000220000400001B
:100D5000034AD2F8883043F47003C2F888307047F1
:100D600000ED00E0DFF834D0FFF7F2FF0C480D494A
:100D70000D4A002302E0D458C4500433C4188C42F6
:100D8000F9D30A4A0A4C002301E013600432A2425C
:100D9000FBD301F017F8FFF7D9FE704700000220DF
:100DA000000000207C000020802800087C0000203B
:100DB00038020020FEE7000038B50E4B1A784FF4D9
:100DC0007A73B3FBF2F30C4A05461068B0FBF3F0FC
:100DD00000F09AF8044658B90F2D09D80246294662
:100DE0004FF0FF3000F05EF8044B20461D6038BD28
:100DF0000120FCE704000020000000200800002083
:100E000008B50B4B1A6842F400721A601A6842F473
:100E100080621A601A6842F480721A60032000F03F
:100E20002FF80F20FFF7C8FFFFF7FEFE002008BDD8
:100E3000003C0240034A044B11681B780B441360CA
:100E4000704700BFEC00002004000020014B186830
:100E5000704700BFEC00002038B50446FFF7F6FFEE
:100E6000631C1CBF054B1B78054618BFE418FFF731
:100E7000EDFF431BA342FAD338BD00BF040000209E
:100E80000749CA6822F4E0620302120403F4E06333
:100E9000120C134343F0BF6343F40033CB6070473D
:100EA00000ED00E0164B30B5DC68C4F30224C4F159
:100EB0000703251D042B28BF0423062D4FF0FF3503
:100EC0008CBF033C002405FA03F321EA0303A54089
:100ED00022EA0502A340002843EA0203ACBF00F166
:100EE0006040084A4FEA0313B8BF00F00F00DBB2BE
:100EF000AABF00F56140135480F8003330BD00BF35
:100F000000ED00E014ED00E00138B0F1807F0BD27D
:100F10004FF0E023054A5861F02182F823100020A9
:100F2000072298611A6170470120704700ED00E0C8
:100F300010B5044650B1437903F0FF0213B90271B2
:100F4000FFF78EFE01236371002010BD0120FCE736
:100F5000094910B50C6924F440740C610C6944F41F
:100F600040740C610C6944F001040C610260BFF331
:100F70006F8F436010BD00BF003C0240074B1A69F1
:100F800022F440721A611A6942F400721A611A69F5
:100F900042F001021A610160704700BF003C02404C
:100FA000074B1A6922F440721A611A6942F480727E
:100FB0001A611A6942F001021A610180704700BF8C
:100FC000003C0240204BDA68D00606D51F49CA69AA
:100FD00042F01002CA611022DA60DA68910606D582
:100FE0001A49CA6942F00802CA612022DA60164B27
:100FF000DA68520606D51549CA6942F00402CA6188
:101000004022DA60DA68100606D51049CA6942F053
:101010000202CA618022DA600B4BDA68D10507D57B
:101020000A49CA6942F00102CA614FF48072DA606B
:10103000DA68920706D50549CA6942F02002CA61FA
:101040000222DA60704700BF003C02400C00002022
:10105000064B1A69002ABFBF054A5A6002F188325E
:101060005A60BABF1869C00F00207047003C0240A8
:1010700023016745034A136943F0004313610020CD
:10108000704700BF003C0240114B70B5002204467F
:10109000DA61FFF7DBFE0F4D0646EB68DA030CD48E
:1010A000EB68DB0744BF0123EB60E86810F4F970DC
:1010B00007D0FFF787FF012003E0611CEDD00CB9DA
:1010C000032070BDFFF7C2FE801BA042E5D9F7E701
:1010D0000C000020003C02402DE9F0411F4E9846D4
:1010E000337E012B07460D46144635D001234CF2C2
:1010F00050303376FFF7C8FFB0B9CFB9184B1A6933
:1011000022F440721A611A691A611A69E4B242F053
:1011100001021A612C704CF25030FFF7B5FF104AF3
:10112000136923F00103136100233376BDE8F081D6
:10113000012F04D1A1B22846FFF732FFEBE7022FBF
:1011400004D121462846FFF719FFE4E7224643462B
:101150002846FFF7FDFEDEE70220E7E70C0000204F
:10116000003C0240074B1A6922F440721A611A6966
:1011700042F004021A611A6942EA002242F4803203
:101180001A617047003C02400D4B1A6922F440720C
:101190001A611A69022994BF09024FF440710A4387
:1011A0001A611A6922F0F8021A611A6942EAC0004B
:1011B00040F0020018611A6942F480321A617047E7
:1011C000003C0240144B1A6891050FD51A6822F4AE
:1011D00000721A601A6842F400621A601A6822F4F7
:1011E00000621A601A6842F400721A600A4B1A68A8
:1011F00052050FD51A6822F480621A601A6842F408
:1012000080521A601A6822F480521A601A6842F4F6
:1012100080621A60704700BF003C02402DE9F8432D
:10122000DFF8948098F81830012B05460F463FD020
:1012300001234CF2503088F81830FFF725FF0446A0
:10124000A0B94FF0FF333B602B68012B14D1287CF1
:10125000FFF788FF4CF25030FFF716FF154A13696D
:1012600023F0040304461361FFF7ACFF002388F862
:1012700018302046BDE8F883AE68DFF83890D5E92D
:1012800002231344B342EFD9297C3046FFF77CFF99
:101290004CF25030FFF7F8FED9F8103023F0FA0383
:1012A000C9F8103010B13E600446DDE70136E6E7CC
:1012B0000224DEE7003C02400C0000202DE9F74F3D
:1012C000DFF89891634A00230D6801249C4004EAEA
:1012D0000506AC4340F0AB804D68032705F00304DE
:1012E0004FEA430807FA08FC671E012F6FEA0C0C4F
:1012F00034D8876807EA0C0ECF6807FA08F747EA80
:101300000E078760476827EA060EC5F300179F405F
:1013100047EA0E074760C76807EA0C0E8F6807FAAE
:1013200008F747EA0E07022CC76019D14FEAD30A23
:1013300000EB8A0A03F0070BDAF820704FEA8B0BF8
:101340004FF00F0E0EFA0BFE27EA0E0E0F6907FA8A
:101350000BF747EA0E07CAF8207001E0032CDAD138
:10136000076804FA08F407EA0C073C4315F4403F09
:1013700004605CD000240194D9F8444044F48044D3
:10138000C9F84440D9F8444023F0030707F18047E7
:1013900004F4804407F59C37019403F0030C019C8E
:1013A000D7F808E04FEA8C0C0F2404FA0CF42EEA6C
:1013B000040E294CA04241D004F58064A0423FD0E5
:1013C00004F58064A0423DD004F58064A0423BD087
:1013D00004F58064A04239D004F58064A04237D07F
:1013E00004F58064A04214BF0724062404FA0CF418
:1013F00044EA0E04BC609468F74315F4801F0CBFE8
:101400003C4034439460D46815F4001F0CBF3C404A
:101410003443D460546815F4003F0CBF3C4034435F
:1014200054601468ED0354BF3C40344314600133EE
:10143000102B7FF449AF03B0BDE8F08F0024D5E74F
:101440000124D3E70224D1E70324CFE70424CDE726
:101450000524CBE7003C0140000002400038024078
:101460000AB1816170470904FBE7436901EA03029D
:1014700021EA030141EA0241816170472DE9F0410F
:101480000D46044610B90120BDE8F081434B1A68AF
:1014900002F00F028A4228D321688F072DD4C80793
:1014A00040D43E4B1A6802F00F02AA4265D8226867
:1014B00051076BD4130707D5394A2169936823F480
:1014C000604343EAC103936000F092F8344B354A1D
:1014D0009B68C3F30313D35CD840334B1860334B82
:1014E0001868FFF769FC0020CEE7CAB21A701B68C3
:1014F00003F00F038B42C6D1CEE7294B11F0040F46
:101500001EBF9A6842F4E0529A600E0742BF9A6882
:1015100042F460429A609A68A06822F0F0020243A6
:101520009A60BCE762681E4B012A1CD11B6813F449
:10153000003FA8D01A4EB36823F003031343B360EF
:10154000FFF784FC41F288380746B368626803F00D
:101550000C03B3EB820FA4D0FFF778FCC01B40450F
:10156000F3D9032090E7911E01291B6802D813F0DC
:10157000007FDEE713F0020FDBE7EAB21A701B68A8
:1015800003F00F03AB427FF47EAF90E70449E068BD
:101590008B6823F4E05303438B608BE7003C0240ED
:1015A000003802405E2800080000002008000020EB
:1015B000044B054A9B68C3F38223D35C034A10683B
:1015C000D84070470038024056280008000000202C
:1015D000044B054A9B68C3F34233D35C034A10684B
:1015E000D84070470038024056280008000000200C
:1015F000204908B58B6803F00C03082B07D00C2B8F
:1016000020D01D481D4A042B18BF104608BD4A684B
:101610004B68496813F4800314BF17481748C1F397
:10162000881118BF002302F03F02A1FB0001FEF762
:1016300047FE104B5B68C3F3014301335B00B0FB13
:10164000F3F0E3E74A684B68496813F4800314BF7A
:1016500009480A48C1F3881118BF002302F03F026D
:10166000A1FB0001FEF72CFE024B5B68C3F3027383
:10167000E5E700BF0038024040787D010024F40017
:101680002DE9F3410446002831D00368DF0710D468
:1016900023689E0767D42368190700F1B280236886
:1016A0005A0700F1D280A369002B40F03981002055
:1016B00034E0984B9A6802F00C02042A10D09A6821
:1016C00002F00C02082A02D15B685D0208D4914B3B
:1016D0009A6802F00C020C2A0BD15A68510208D504
:1016E0008C4B1B689A03D3D56368002BD0D10120A3
:1016F00014E06268B2F5803F13D11A6842F4803278
:101700001A60FFF7A3FB834E054633689B03BFD4E3
:10171000FFF79CFB401B6428F7D9032002B0BDE80B
:10172000F0817C4DB2F5A02F2B6807D143F48023C4
:101730002B602B6843F480332B60E2E723F4803383
:101740002B602B6823F480232B60002AD9D1FFF76C
:101750007DFB06462B689F039AD5FFF777FB801B1E
:101760006428F7D9D9E76B4B9A6812F00C0F10D0A8
:101770009A6802F00C02082A02D15B685E0208D562
:10178000644A936803F00C030C2B11D153685D027B
:101790000ED4604A1368990702D5E368012BA6D1DD
:1017A0001368216923F0F80343EAC103136072E769
:1017B000E268594BB2B101221A60FFF747FB554D61
:1017C00006462B689B0707D52B68226923F0F80390
:1017D00043EAC2032B605EE7FFF738FB801B022859
:1017E000EFD99AE71A60FFF731FB4A4E0546336896
:1017F0009F077FF550AFFFF729FB401B0228F6D962
:101800008BE76269444B82B10122C3F8802EFFF757
:101810001DFB404E0546736F9B073FF540AFFFF73A
:1018200015FB401B0228F6D977E7C3F8802EFFF797
:101830000DFB384E0546736F9F077FF530AFFFF7FE
:1018400005FB401B0228F6D967E7324B1A6C12F0F1
:10185000805228D101921A6C42F080521A641B6C9B
:1018600003F080530193019B01272C4D2B68D80571
:101870001BD5A368274D012B27D12B6F43F0010304
:101880002B67FFF7E3FA234E054641F28838336FA2
:101890009A0739D5002F3FF406AF1E4A136C23F088
:1018A00080531364FFE60027DFE72B6843F480735F
:1018B0002B60FFF7CBFA06462B68D905D9D4FFF782
:1018C000C5FA801B0228F7D927E7052B04D12B6F17
:1018D00043F004032B67D0E72A6F22F001022A6746
:1018E0002A6F22F004022A67002BCAD1FFF7AEFA52
:1018F00041F2883806462B6F9B07CBD5FFF7A6FA37
:10190000801B4045F7D908E7FFF7A0FA401B404588
:10191000BDD902E700380240000047420070004095
:101920003C4DAA6802F00C02082A41D0022B3A4B27
:101930004FF000021A662ED1FFF788FA06462B6890
:10194000990122D4D4E907321343626A43EA82132D
:10195000E26A43EA0263226B43EA0273A26A520814
:10196000013A43EA02436B602B4B2A4D01221A666F
:10197000FFF76CFA04462B689A013FF598AEFFF723
:1019800065FA001B0228F6D9C7E6FFF75FFA801B4D
:101990000228D4D9C1E6FFF759FA04462B689B0107
:1019A0007FF585AEFFF752FA001B0228F6D9B4E6A0
:1019B000012B3FF49CAE6B68E26903F48001914215
:1019C0007FF495AE216A03F03F028A427FF48FAE26
:1019D000616A47F6C0721A40B2EB811F7FF487AE8E
:1019E000A26A520803F44031013AB1EB024F7FF48E
:1019F0007EAEE16A03F07062B2EB016F7FF477AE06
:101A0000226B03F0E043B3EB027F14BF0120002000
:101A100084E600BF0038024000004742026802F13D
:101A20000C0353E8003F23F490730C3242E800317A
:101A300002680029F2D102F1140353E8003F23F0B9
:101A4000010302F1140C4CE800310029F3D1036BBF
:101A5000012B0BD102F10C0353E8003F23F01003DC
:101A600002F10C0C4CE800310029F3D1202380F85E
:101A700042300023036370470268C16838B51369B8
:101A800023F440530B431361054683680069D16812
:101A9000034368690343E86921F4164121F00C010E
:101AA00003430B43D3605369A96923F440730B4389
:101AB00053611F4B9A4203D003F580639A4224D1AD
:101AC000FFF786FDEA691921B2F5004FD5E9004319
:101AD000A0FB01011CD1DA184FF0000545EB05030E
:101AE000FEF7EEFB6422B0FBF2F102FB1103DB0018
:101AF0003233B3FBF2F303F007025B0002EB011297
:101B000003F4F8731344A36038BDFFF751FDD9E720
:101B10009A009B0FFEF7D4FB6422B0FBF2F102FBAC
:101B200011031B013233B3FBF2F303EB0113EAE7BA
:101B300000100140F7B505460C4617461E462A68B8
:101B4000136834EA030301D1002021E0701CF7D0B0
:101B5000FFF77CF9C01B86421CD3DEB12B68DA6824
:101B60005107ECD5802CEAD0402CE8D01A68120737
:101B7000E5D5002401941A6801925B680193284618
:101B8000019BFFF74BFF08236B6485F84040012061
:101B900003B0F0BD0320FBE710B5044648B390F84E
:101BA000413003F0FF021BB980F84020FFF770F8C6
:101BB0002268242384F84130D36823F40053D3608F
:101BC0002046FFF759FF23681A6922F490421A61F0
:101BD0005A6922F02A025A61DA6842F40052DA6045
:101BE00000202023606484F8413084F84230606330
:101BF00010BD0120FCE72DE9F843984690F84130EC
:101C0000202B04460E4617463FD100293FD0002A1C
:101C10003DD021230025456480F84130FFF716F9B7
:101C2000A368A784B3F5805F8146E78403D1236965
:101C30000BB935461E46E38C9BB253B943464A4620
:101C400040212046FFF776FF202350B984F8413029
:101C50000AE043464A4680212046FFF76BFF28B141
:101C6000202384F841300320BDE8F88322684EB970
:101C700035F8023BC3F308035360E18C013989B2A4
:101C8000E184D8E716F8013BF6E70220ECE70120F3
:101C9000EAE72DE9F8431F4690F84230202B04462E
:101CA0000E46914648D1002948D0002A46D022232A
:101CB0000025456480F842300563FFF7C7F8A36844
:101CC000A4F82C90B3F5805F8046A4F82E9003D141
:101CD00023690BB935461E46E08D80B218B9202322
:101CE00084F842300AE03B46424620212046FFF776
:101CF00021FF28B1202384F842300320BDE8F88377
:101D000023684EB95B68C3F3080325F8023BE38DF3
:101D1000013B9BB2E385DFE7A268B2F5805F02D0AA
:101D200032B9226922B95968C9B206F8011BEEE737
:101D3000596801F07F01F8E70220DFE70120DDE7C5
:101D40000EB410B59DB01FAB029006906FF000412D
:101D50000A48079104910A4953F8042B059100247D
:101D600002A9006801931B9400F0A6F9029B1C7065
:101D70001DB0BDE8104003B0704700BF2C0000202C
:101D80000802FFFF02440346934200D1704703F864
:101D9000011BF9E710B56AB10139841810F8012B5D
:101DA00011F8013F9A4203D1A04201D0002AF5D197
:101DB000D01A10BD1046FCE7014B1868704700BFF1
:101DC0002C00002070B50D4D0D4C641BA410002696
:101DD000A64209D10B4D0C4C00F064FC641BA4100E
:101DE0000026A64205D170BD55F8043B9847013640
:101DF000EEE755F8043B98470136F2E778280008EB
:101E000078280008782800087C2800087047704768
:101E100038B50546002941D051F8043C0C1F002B71
:101E2000B8BFE41800F0E0F81D4A136833B96360E6
:101E300014602846BDE8384000F0DCB8A34208D959
:101E4000206821188B4201BF19685B68091821605E
:101E5000EDE71A465B680BB1A342FAD91168501836
:101E6000A0420BD120680144501883421160E0D198
:101E700018685B68536008441060DAE702D90C23E5
:101E80002B60D6E7206821188B4204BF19685B6875
:101E9000636004BF091821605460CAE738BD00BF01
:101EA0003402002070B50F4E0C463168054611B95A
:101EB00000F0A4FB30602146284600F09FFB431C45
:101EC00003D14FF0FF34204670BDC41C24F003043E
:101ED000A042F8D0211A284600F090FB0130F2D140
:101EE000EFE700BF300200202DE9F843CD1C25F0BC
:101EF000030508350C2D38BF0C25002D064601DBE7
:101F0000A94204D90C2333600020BDE8F883DFF830
:101F1000D48000F069F8D8F800301C4644BB29464C
:101F20003046FFF7BFFF431C044658D1D8F80040A5
:101F30002746002F43D1002C4BD02368394630462A
:101F400004EB030900F05AFB814542D121686D1A68
:101F500029463046FFF7A6FF01303AD023682B44CC
:101F60002360D8F800305A6862BBC8F800700FE0F0
:101F70002268521B20D40B2A17D96119A34225606D
:101F800018BF5960636808BFC8F8001062514B6001
:101F9000304600F02FF804F10B00231D20F007005D
:101FA000C21A1CBF1B1AA350AFE76268A3420CBF42
:101FB000C8F800205A60EBE723466468AEE73C4669
:101FC0007F68B6E71A465B68A342FBD100235360E3
:101FD000DEE70C233360304600F00CF894E7056030
:101FE000D6E700BF340200200148FFF70FBF00BF53
:101FF0002C0200200148FFF70ABF00BF2C0200207E
:102000002DE9F0478E681F46BE420B6882460C469B
:1020100090462DD8B1F90C2012F4906F26D0656946
:10202000096905EB4505A3EB010905EBD5757B1C9B
:102030004B446D109D4238BF1D46530527D5294698
:10204000FFF752FF064660B321694A4600F0E6FA00
:10205000A38923F4906343F08003A3812661656123
:102060004E44A5EB09052660A5603E46BE4200D958
:102070003E4620683246414600F0A6FAA3689B1B04
:10208000A3602368334423600020BDE8F0872A461C
:1020900000F0D2FA06460028E0D121695046FFF749
:1020A000B7FE0C23CAF80030A38943F04003A38194
:1020B0004FF0FF30E9E700002DE9F04F98468B899B
:1020C0001B069DB007460D46144610D50B6973B923
:1020D0004021FFF709FF2860286130B90C233B60DD
:1020E0004FF0FF301DB0BDE8F08F40236B6100233F
:1020F000099320238DF82930CDF80C803023DFF8A8
:102100009C818DF82A304FF0010923469A4613F836
:10211000012B0AB1252AF9D1BAEB040B0BD05B468F
:10212000224629463846FFF76BFF013000F0A780B2
:10213000099A5A4409929AF80030002B00F09F80C7
:1021400000234FF0FF32CDE905230AF1010A049381
:1021500007938DF853301A935446052214F8011B47
:102160004E48FEF75DF8049AD8B9D00644BF202344
:102170008DF85330110744BF2B238DF853309AF854
:1021800000302A2B15D0079A544600204FF00A0C35
:10219000214611F8013B303B092B4BD9B0B10792D6
:1021A00014E0A0EB080309FA03F313430493A246D7
:1021B000D2E7039B191D1B680391002BBBBF5B4239
:1021C00042F0020207930793B8BF049223782E2BA4
:1021D0000AD163782A2B32D1039B1A1D1B68039204
:1021E00043EAE37302340593DFF8C0A021780322A9
:1021F0005046FEF715F838B1049BA0EB0A004022C8
:10220000824013430134049314F8011B24488DF8D1
:1022100028100622FEF704F8002836D0214B1BBBFD
:10222000039B073323F0070308330393099B3344CD
:1022300009936AE70CFB02320C460120A8E7002351
:102240000134059319464FF00A0C204610F8012B73
:10225000303A092A03D9002BC6D00591C4E70CFBFC
:10226000012104460123F0E703AB00932A460E4BFD
:1022700004A93846AFF30080421C0646D6D1AB898C
:102280005B063FF52DAF09982CE703AB00932A4678
:10229000054B04A9384600F079F8EDE7232800083B
:1022A0002D2800080000000001200008292800084F
:1022B0002DE9F047164698468A680B69DDF82090AC
:1022C0009342B8BF1346336091F8432007460C464B
:1022D0000AB1013333602368990642BF3368023381
:1022E0003360256815F0060506D104F1190AE36884
:1022F00032689B1AAB4226DC94F843302268003BDC
:1023000018BF012392062BD404F1430241463846FC
:10231000C84701301ED02368226903F00603042B4E
:1023200002BFE5683368ED1AA3680CBF25EAE575BE
:1023300000259342C4BF9B1AED1800261A34B542FB
:102340001AD1002008E00123524641463846C847CA
:10235000013003D14FF0FF30BDE8F0870135C6E70B
:10236000E1185A1C302081F84300224494F84510AB
:1023700082F843100233C7E701232246414638461C
:10238000C8470130E6D00136D9E700002DE9FF4704
:102390000F7E0C9E782F914680460C469A4601F19E
:1023A000430207D8622F0AD8002F00F0D180582F9F
:1023B00000F0B88004F1420684F842703AE0A7F1D8
:1023C0006303152BF6D801A151F823F0252400084A
:1023D00039240008B5230008B5230008B5230008F8
:1023E000B523000839240008B5230008B5230008E8
:1023F000B5230008B523000837250008632400082A
:10240000F1240008B5230008B52300085925000869
:10241000B523000863240008B5230008B52300088D
:10242000F924000833681A1D1B68326004F1420663
:1024300084F8423001239CE033682068191D316024
:10244000060601D51D6803E04506FBD5B3F900502B
:10245000002D03DA2D236D4284F8433058480A23B7
:1024600011E021683368080653F8045B02D449067A
:1024700048BFADB26F2F5248336014BF0A23082300
:10248000002184F843106668A660002E05DB2168F1
:102490002E4321F0040121604BD01646B5FBF3F129
:1024A00003FB1157C75D06F8017D2F46BB420D4661
:1024B000F4D9082B0BD12368DF0708D5236961689D
:1024C0009942DEBF302306F8013C06F1FF36921B2D
:1024D0002261CDF800A04B4603AA21464046FFF7F3
:1024E000E7FE01304AD14FF0FF3004B0BDE8F0877D
:1024F000236843F0200323603248782784F845702E
:10250000236831681F0651F8045B02D45F0648BF98
:10251000ADB23160D90744BF43F0200323601DB141
:102520001023ADE72648E9E7236823F02003236062
:10253000F6E71646BDE7336825686169181D306007
:102540002E061B6801D5196002E06806FBD51980CC
:10255000002323611646BCE733681A1D32601E68EB
:10256000626800213046FDF75BFE08B1801B6060A9
:1025700063682361002384F84330AAE72369324665
:1025800049464046D0470130ADD023689B0713D45D
:10259000E068039B9842B8BF1846A6E7012332467D
:1025A00049464046D04701309DD00135E368039944
:1025B0005B1AAB42F2DCEBE7002504F11906F5E704
:1025C0003428000845280008884210B501EB0204B1
:1025D00002D98442234607D8431EA14208D011F8ED
:1025E000012B03F8012FF8E7024401468A4200D18B
:1025F00010BD13F8014D02F8014DF7E738B5064D4F
:102600000023044608462B60FEF782FB431C02D1E0
:102610002B6803B1236038BD280200200A44914290
:1026200000F1FF3300D1704710B511F8014B03F8EA
:10263000014F9142F9D110BD2DE9F04107461446F2
:102640000D4621B9BDE8F0411146FFF74DBC2AB94E
:10265000FFF7DEFB25462846BDE8F08100F01AF8BA
:102660008442064602D8B4EB500FF4D821463846CF
:10267000FFF73AFC804608B94546ECE7B4422246EB
:10268000294628BF3246FFF7C9FF29463846FFF7DB
:10269000BFFBF1E751F8043C181F002BBCBF0B58DF
:1026A000C0187047F8B500BFF8BC08BC9E4670471C
:0C26B000F8B500BFF8BC08BC9E4670479F
:1026BC005550444154450052454144590D0A00536C
:1026CC00495A452054494D454F55540D0A00526501
:1026DC0063656976696E6720256C7520627974650F
:1026EC00730D0A004552415345440D0A00434855A9
:1026FC004E4B2054494D454F55540D0A00435243FF
:10270C002054494D454F55540D0A004E41434B0D35
:10271C000A00464C415348204641494C0D0A00449E
:10272C004F4E450D0A00466972737420626F6F74C8
:10273C002C20696E69742064657363726970746FA0
:10274C00720D0A00456E746572696E67207570644F
:10275C00617465206D6F64650D0A004F5441204F04
:10276C004B2C20726573657474696E670D0A004F8B
:10277C005441206661696C65640D0A00426F6F7488
:10278C00696E672061637469766520736C6F740D74
:10279C000A004D535020617420736C6F743A2030D2
:1027AC00782530386C580D0A0052657365742061B9
:1027BC007420736C6F743A2030782530386C580D57
:1027CC000A00416374697665206661696C65642CE6
:1027DC0020626F6F74696E67206F74686572207306
:1027EC006C6F740D0A00426F746820736C6F747395
:1027FC0020696E76616C69642C2068616C740D0ABA
:10280C0000496E736964652074686520626F6F742B
:10281C006C6F6164657200232D302B2000686C4C4A
:10282C0000656667454647003031323334353637FC
:10283C003839414243444546003031323334353621
:10284C00373839616263646566000000000001027C
:10285C00030400000000000000000102030406074E
:04286C000809000057
:08287000A0D9FF7F0100000068
:04287800F50100085E
:04287C00D10100087E
:102880000024F4000100000010000000000000001F
:102890000000000000000000000000000100000037
:1028A00000000000000000000000000030000020D8
:1028B00000000000F000002058010020C0010020AE
:1028C0000000000000000000000000000000000008
:1028D00000000000000000000000000000000000F8
:1028E00000000000000000000000000000000000E8
:0C28F000000000000000000000000000DC
:0400000508000D657D
:00000001FF
